{
  "_format": "hh-sol-artifact-1",
  "contractName": "MedicalRecord",
  "sourceName": "contracts/MedicalRecord.sol",
  "abi": [
    {
      "anonymous": false,
      "inputs": [
        {
          "indexed": true,
          "internalType": "address",
          "name": "doctorAddress",
          "type": "address"
        },
        {
          "indexed": true,
          "internalType": "address",
          "name": "patientAddress",
          "type": "address"
        },
        {
          "indexed": true,
          "internalType": "address",
          "name": "guardianAddress",
          "type": "address"
        },
        {
          "indexed": false,
          "internalType": "string",
          "name": "treatmentTitle",
          "type": "string"
        },
        {
          "indexed": false,
          "internalType": "string",
          "name": "treatmentDetails",
          "type": "string"
        }
      ],
      "name": "TreatmentRecorded",
      "type": "event"
    },
    {
      "inputs": [
        {
          "internalType": "uint256",
          "name": "_index",
          "type": "uint256"
        }
      ],
      "name": "getTreatment",
      "outputs": [
        {
          "internalType": "address",
          "name": "doctorAddress",
          "type": "address"
        },
        {
          "internalType": "address",
          "name": "patientAddress",
          "type": "address"
        },
        {
          "internalType": "address",
          "name": "guardianAddress",
          "type": "address"
        },
        {
          "internalType": "string",
          "name": "treatmentTitle",
          "type": "string"
        },
        {
          "internalType": "string",
          "name": "treatmentDetails",
          "type": "string"
        }
      ],
      "stateMutability": "view",
      "type": "function"
    },
    {
      "inputs": [],
      "name": "getTreatmentCount",
      "outputs": [
        {
          "internalType": "uint256",
          "name": "",
          "type": "uint256"
        }
      ],
      "stateMutability": "view",
      "type": "function"
    },
    {
      "inputs": [],
      "name": "getTreatments",
      "outputs": [
        {
          "components": [
            {
              "internalType": "address",
              "name": "doctorAddress",
              "type": "address"
            },
            {
              "internalType": "address",
              "name": "patientAddress",
              "type": "address"
            },
            {
              "internalType": "address",
              "name": "guardianAddress",
              "type": "address"
            },
            {
              "internalType": "string",
              "name": "treatmentTitle",
              "type": "string"
            },
            {
              "internalType": "string",
              "name": "treatmentDetails",
              "type": "string"
            }
          ],
          "internalType": "struct MedicalRecord.Treatment[]",
          "name": "",
          "type": "tuple[]"
        }
      ],
      "stateMutability": "view",
      "type": "function"
    },
    {
      "inputs": [
        {
          "internalType": "address",
          "name": "_doctorAddress",
          "type": "address"
        },
        {
          "internalType": "address",
          "name": "_patientAddress",
          "type": "address"
        },
        {
          "internalType": "address",
          "name": "_guardianAddress",
          "type": "address"
        },
        {
          "internalType": "string",
          "name": "_treatmentTitle",
          "type": "string"
        },
        {
          "internalType": "string",
          "name": "_treatmentDetails",
          "type": "string"
        }
      ],
      "name": "recordTreatment",
      "outputs": [],
      "stateMutability": "nonpayable",
      "type": "function"
    },
    {
      "inputs": [
        {
          "internalType": "uint256",
          "name": "",
          "type": "uint256"
        }
      ],
      "name": "treatments",
      "outputs": [
        {
          "internalType": "address",
          "name": "doctorAddress",
          "type": "address"
        },
        {
          "internalType": "address",
          "name": "patientAddress",
          "type": "address"
        },
        {
          "internalType": "address",
          "name": "guardianAddress",
          "type": "address"
        },
        {
          "internalType": "string",
          "name": "treatmentTitle",
          "type": "string"
        },
        {
          "internalType": "string",
          "name": "treatmentDetails",
          "type": "string"
        }
      ],
      "stateMutability": "view",
      "type": "function"
    }
  ],
  "bytecode": "0x608060405234801561001057600080fd5b50611264806100206000396000f3fe608060405234801561001057600080fd5b50600436106100575760003560e01c8063498b097b1461005c5780636e17da77146100785780638bb25419146100ac5780638e3b2d1e146100ca578063f26c5f5f146100e8575b600080fd5b61007660048036038101906100719190610b01565b61011c565b005b610092600480360381019061008d9190610bea565b610338565b6040516100a3959493929190610ca5565b60405180910390f35b6100b46104ee565b6040516100c19190610e9e565b60405180910390f35b6100d2610773565b6040516100df9190610ecf565b60405180910390f35b61010260048036038101906100fd9190610bea565b61077f565b604051610113959493929190610ca5565b60405180910390f35b60006040518060a001604052808773ffffffffffffffffffffffffffffffffffffffff1681526020018673ffffffffffffffffffffffffffffffffffffffff1681526020018573ffffffffffffffffffffffffffffffffffffffff16815260200184815260200183815250908060018154018082558091505060019003906000526020600020906005020160009091909190915060008201518160000160006101000a81548173ffffffffffffffffffffffffffffffffffffffff021916908373ffffffffffffffffffffffffffffffffffffffff16021790555060208201518160010160006101000a81548173ffffffffffffffffffffffffffffffffffffffff021916908373ffffffffffffffffffffffffffffffffffffffff16021790555060408201518160020160006101000a81548173ffffffffffffffffffffffffffffffffffffffff021916908373ffffffffffffffffffffffffffffffffffffffff160217905550606082015181600301908161029a91906110f6565b5060808201518160040190816102b091906110f6565b5050508273ffffffffffffffffffffffffffffffffffffffff168473ffffffffffffffffffffffffffffffffffffffff168673ffffffffffffffffffffffffffffffffffffffff167ffcd5d6368beeacc066035a673c425006cfad007f17a99c3b23ccec5ce133c4e185856040516103299291906111c8565b60405180910390a45050505050565b6000818154811061034857600080fd5b90600052602060002090600502016000915090508060000160009054906101000a900473ffffffffffffffffffffffffffffffffffffffff16908060010160009054906101000a900473ffffffffffffffffffffffffffffffffffffffff16908060020160009054906101000a900473ffffffffffffffffffffffffffffffffffffffff16908060030180546103dd90610f19565b80601f016020809104026020016040519081016040528092919081815260200182805461040990610f19565b80156104565780601f1061042b57610100808354040283529160200191610456565b820191906000526020600020905b81548152906001019060200180831161043957829003601f168201915b50505050509080600401805461046b90610f19565b80601f016020809104026020016040519081016040528092919081815260200182805461049790610f19565b80156104e45780601f106104b9576101008083540402835291602001916104e4565b820191906000526020600020905b8154815290600101906020018083116104c757829003601f168201915b5050505050905085565b60606000805480602002602001604051908101604052809291908181526020016000905b8282101561076a57838290600052602060002090600502016040518060a00160405290816000820160009054906101000a900473ffffffffffffffffffffffffffffffffffffffff1673ffffffffffffffffffffffffffffffffffffffff1673ffffffffffffffffffffffffffffffffffffffff1681526020016001820160009054906101000a900473ffffffffffffffffffffffffffffffffffffffff1673ffffffffffffffffffffffffffffffffffffffff1673ffffffffffffffffffffffffffffffffffffffff1681526020016002820160009054906101000a900473ffffffffffffffffffffffffffffffffffffffff1673ffffffffffffffffffffffffffffffffffffffff1673ffffffffffffffffffffffffffffffffffffffff16815260200160038201805461064790610f19565b80601f016020809104026020016040519081016040528092919081815260200182805461067390610f19565b80156106c05780601f10610695576101008083540402835291602001916106c0565b820191906000526020600020905b8154815290600101906020018083116106a357829003601f168201915b505050505081526020016004820180546106d990610f19565b80601f016020809104026020016040519081016040528092919081815260200182805461070590610f19565b80156107525780601f1061072757610100808354040283529160200191610752565b820191906000526020600020905b81548152906001019060200180831161073557829003601f168201915b50505050508152505081526020019060010190610512565b50505050905090565b60008080549050905090565b6000806000606080600080878154811061079c5761079b6111ff565b5b906000526020600020906005020190508060000160009054906101000a900473ffffffffffffffffffffffffffffffffffffffff1695508060010160009054906101000a900473ffffffffffffffffffffffffffffffffffffffff1694508060020160009054906101000a900473ffffffffffffffffffffffffffffffffffffffff16935080600301805461083090610f19565b80601f016020809104026020016040519081016040528092919081815260200182805461085c90610f19565b80156108a95780601f1061087e576101008083540402835291602001916108a9565b820191906000526020600020905b81548152906001019060200180831161088c57829003601f168201915b505050505092508060040180546108bf90610f19565b80601f01602080910402602001604051908101604052809291908181526020018280546108eb90610f19565b80156109385780601f1061090d57610100808354040283529160200191610938565b820191906000526020600020905b81548152906001019060200180831161091b57829003601f168201915b505050505091505091939590929450565b6000604051905090565b600080fd5b600080fd5b600073ffffffffffffffffffffffffffffffffffffffff82169050919050565b60006109888261095d565b9050919050565b6109988161097d565b81146109a357600080fd5b50565b6000813590506109b58161098f565b92915050565b600080fd5b600080fd5b6000601f19601f8301169050919050565b7f4e487b7100000000000000000000000000000000000000000000000000000000600052604160045260246000fd5b610a0e826109c5565b810181811067ffffffffffffffff82111715610a2d57610a2c6109d6565b5b80604052505050565b6000610a40610949565b9050610a4c8282610a05565b919050565b600067ffffffffffffffff821115610a6c57610a6b6109d6565b5b610a75826109c5565b9050602081019050919050565b82818337600083830152505050565b6000610aa4610a9f84610a51565b610a36565b905082815260208101848484011115610ac057610abf6109c0565b5b610acb848285610a82565b509392505050565b600082601f830112610ae857610ae76109bb565b5b8135610af8848260208601610a91565b91505092915050565b600080600080600060a08688031215610b1d57610b1c610953565b5b6000610b2b888289016109a6565b9550506020610b3c888289016109a6565b9450506040610b4d888289016109a6565b935050606086013567ffffffffffffffff811115610b6e57610b6d610958565b5b610b7a88828901610ad3565b925050608086013567ffffffffffffffff811115610b9b57610b9a610958565b5b610ba788828901610ad3565b9150509295509295909350565b6000819050919050565b610bc781610bb4565b8114610bd257600080fd5b50565b600081359050610be481610bbe565b92915050565b600060208284031215610c0057610bff610953565b5b6000610c0e84828501610bd5565b91505092915050565b610c208161097d565b82525050565b600081519050919050565b600082825260208201905092915050565b60005b83811015610c60578082015181840152602081019050610c45565b60008484015250505050565b6000610c7782610c26565b610c818185610c31565b9350610c91818560208601610c42565b610c9a816109c5565b840191505092915050565b600060a082019050610cba6000830188610c17565b610cc76020830187610c17565b610cd46040830186610c17565b8181036060830152610ce68185610c6c565b90508181036080830152610cfa8184610c6c565b90509695505050505050565b600081519050919050565b600082825260208201905092915050565b6000819050602082019050919050565b610d3b8161097d565b82525050565b600082825260208201905092915050565b6000610d5d82610c26565b610d678185610d41565b9350610d77818560208601610c42565b610d80816109c5565b840191505092915050565b600060a083016000830151610da36000860182610d32565b506020830151610db66020860182610d32565b506040830151610dc96040860182610d32565b5060608301518482036060860152610de18282610d52565b91505060808301518482036080860152610dfb8282610d52565b9150508091505092915050565b6000610e148383610d8b565b905092915050565b6000602082019050919050565b6000610e3482610d06565b610e3e8185610d11565b935083602082028501610e5085610d22565b8060005b85811015610e8c5784840389528151610e6d8582610e08565b9450610e7883610e1c565b925060208a01995050600181019050610e54565b50829750879550505050505092915050565b60006020820190508181036000830152610eb88184610e29565b905092915050565b610ec981610bb4565b82525050565b6000602082019050610ee46000830184610ec0565b92915050565b7f4e487b7100000000000000000000000000000000000000000000000000000000600052602260045260246000fd5b60006002820490506001821680610f3157607f821691505b602082108103610f4457610f43610eea565b5b50919050565b60008190508160005260206000209050919050565b60006020601f8301049050919050565b600082821b905092915050565b600060088302610fac7fffffffffffffffffffffffffffffffffffffffffffffffffffffffffffffffff82610f6f565b610fb68683610f6f565b95508019841693508086168417925050509392505050565b6000819050919050565b6000610ff3610fee610fe984610bb4565b610fce565b610bb4565b9050919050565b6000819050919050565b61100d83610fd8565b61102161101982610ffa565b848454610f7c565b825550505050565b600090565b611036611029565b611041818484611004565b505050565b5b818110156110655761105a60008261102e565b600181019050611047565b5050565b601f8211156110aa5761107b81610f4a565b61108484610f5f565b81016020851015611093578190505b6110a761109f85610f5f565b830182611046565b50505b505050565b600082821c905092915050565b60006110cd600019846008026110af565b1980831691505092915050565b60006110e683836110bc565b9150826002028217905092915050565b6110ff82610c26565b67ffffffffffffffff811115611118576111176109d6565b5b6111228254610f19565b61112d828285611069565b600060209050601f831160018114611160576000841561114e578287015190505b61115885826110da565b8655506111c0565b601f19841661116e86610f4a565b60005b8281101561119657848901518255600182019150602085019450602081019050611171565b868310156111b357848901516111af601f8916826110bc565b8355505b6001600288020188555050505b505050505050565b600060408201905081810360008301526111e28185610c6c565b905081810360208301526111f68184610c6c565b90509392505050565b7f4e487b7100000000000000000000000000000000000000000000000000000000600052603260045260246000fdfea2646970667358221220b0ad2c3c68383514cba1f8a6374178a8773e6208559fb821ecfa61ee810e39b064736f6c63430008180033",
  "linkReferences": {},
  "deployedLinkReferences": {}
}