{
  "_format": "hh-sol-artifact-1",
  "contractName": "MedicalRecord",
  "sourceName": "contracts/MedicalRecord.sol",
  "abi": [
    {
      "anonymous": false,
      "inputs": [
        {
          "indexed": true,
          "internalType": "address",
          "name": "doctorAddress",
          "type": "address"
        },
        {
          "indexed": true,
          "internalType": "address",
          "name": "patientAddress",
          "type": "address"
        },
        {
          "indexed": true,
          "internalType": "address",
          "name": "guardianAddress",
          "type": "address"
        },
        {
          "indexed": false,
          "internalType": "string",
          "name": "treatmentTitle",
          "type": "string"
        },
        {
          "indexed": false,
          "internalType": "string",
          "name": "treatmentDetails",
          "type": "string"
        },
        {
          "indexed": false,
          "internalType": "string[]",
          "name": "treatmentCourse",
          "type": "string[]"
        }
      ],
      "name": "TreatmentRecorded",
      "type": "event"
    },
    {
      "inputs": [
        {
          "internalType": "uint256",
          "name": "_index",
          "type": "uint256"
        }
      ],
      "name": "getTreatment",
      "outputs": [
        {
          "internalType": "address",
          "name": "doctorAddress",
          "type": "address"
        },
        {
          "internalType": "address",
          "name": "patientAddress",
          "type": "address"
        },
        {
          "internalType": "address",
          "name": "guardianAddress",
          "type": "address"
        },
        {
          "internalType": "string",
          "name": "treatmentTitle",
          "type": "string"
        },
        {
          "internalType": "string",
          "name": "treatmentDetails",
          "type": "string"
        },
        {
          "internalType": "string[]",
          "name": "treatmentCourse",
          "type": "string[]"
        }
      ],
      "stateMutability": "view",
      "type": "function"
    },
    {
      "inputs": [],
      "name": "getTreatmentCount",
      "outputs": [
        {
          "internalType": "uint256",
          "name": "",
          "type": "uint256"
        }
      ],
      "stateMutability": "view",
      "type": "function"
    },
    {
      "inputs": [],
      "name": "getTreatments",
      "outputs": [
        {
          "components": [
            {
              "internalType": "address",
              "name": "doctorAddress",
              "type": "address"
            },
            {
              "internalType": "address",
              "name": "patientAddress",
              "type": "address"
            },
            {
              "internalType": "address",
              "name": "guardianAddress",
              "type": "address"
            },
            {
              "internalType": "string",
              "name": "treatmentTitle",
              "type": "string"
            },
            {
              "internalType": "string",
              "name": "treatmentDetails",
              "type": "string"
            },
            {
              "internalType": "string[]",
              "name": "treatmentCourse",
              "type": "string[]"
            }
          ],
          "internalType": "struct MedicalRecord.Treatment[]",
          "name": "",
          "type": "tuple[]"
        }
      ],
      "stateMutability": "view",
      "type": "function"
    },
    {
      "inputs": [
        {
          "internalType": "address",
          "name": "_doctorAddress",
          "type": "address"
        },
        {
          "internalType": "address",
          "name": "_patientAddress",
          "type": "address"
        },
        {
          "internalType": "address",
          "name": "_guardianAddress",
          "type": "address"
        },
        {
          "internalType": "string",
          "name": "_treatmentTitle",
          "type": "string"
        },
        {
          "internalType": "string",
          "name": "_treatmentDetails",
          "type": "string"
        },
        {
          "internalType": "string[]",
          "name": "_treatmentCourse",
          "type": "string[]"
        }
      ],
      "name": "recordTreatment",
      "outputs": [],
      "stateMutability": "nonpayable",
      "type": "function"
    },
    {
      "inputs": [
        {
          "internalType": "uint256",
          "name": "",
          "type": "uint256"
        }
      ],
      "name": "treatments",
      "outputs": [
        {
          "internalType": "address",
          "name": "doctorAddress",
          "type": "address"
        },
        {
          "internalType": "address",
          "name": "patientAddress",
          "type": "address"
        },
        {
          "internalType": "address",
          "name": "guardianAddress",
          "type": "address"
        },
        {
          "internalType": "string",
          "name": "treatmentTitle",
          "type": "string"
        },
        {
          "internalType": "string",
          "name": "treatmentDetails",
          "type": "string"
        }
      ],
      "stateMutability": "view",
      "type": "function"
    }
  ],
  "bytecode": "0x608060405234801561001057600080fd5b50611817806100206000396000f3fe608060405234801561001057600080fd5b50600436106100575760003560e01c80636e17da771461005c5780638bb25419146100905780638e3b2d1e146100ae578063f26c5f5f146100cc578063f9ca6a2b14610101575b600080fd5b61007660048036038101906100719190610c45565b61011d565b604051610087959493929190610d43565b60405180910390f35b6100986102d3565b6040516100a59190611018565b60405180910390f35b6100b6610631565b6040516100c39190611049565b60405180910390f35b6100e660048036038101906100e19190610c45565b61063d565b6040516100f8969594939291906110ea565b60405180910390f35b61011b600480360381019061011691906113a7565b6108df565b005b6000818154811061012d57600080fd5b90600052602060002090600602016000915090508060000160009054906101000a900473ffffffffffffffffffffffffffffffffffffffff16908060010160009054906101000a900473ffffffffffffffffffffffffffffffffffffffff16908060020160009054906101000a900473ffffffffffffffffffffffffffffffffffffffff16908060030180546101c2906114b7565b80601f01602080910402602001604051908101604052809291908181526020018280546101ee906114b7565b801561023b5780601f106102105761010080835404028352916020019161023b565b820191906000526020600020905b81548152906001019060200180831161021e57829003601f168201915b505050505090806004018054610250906114b7565b80601f016020809104026020016040519081016040528092919081815260200182805461027c906114b7565b80156102c95780601f1061029e576101008083540402835291602001916102c9565b820191906000526020600020905b8154815290600101906020018083116102ac57829003601f168201915b5050505050905085565b60606000805480602002602001604051908101604052809291908181526020016000905b8282101561062857838290600052602060002090600602016040518060c00160405290816000820160009054906101000a900473ffffffffffffffffffffffffffffffffffffffff1673ffffffffffffffffffffffffffffffffffffffff1673ffffffffffffffffffffffffffffffffffffffff1681526020016001820160009054906101000a900473ffffffffffffffffffffffffffffffffffffffff1673ffffffffffffffffffffffffffffffffffffffff1673ffffffffffffffffffffffffffffffffffffffff1681526020016002820160009054906101000a900473ffffffffffffffffffffffffffffffffffffffff1673ffffffffffffffffffffffffffffffffffffffff1673ffffffffffffffffffffffffffffffffffffffff16815260200160038201805461042c906114b7565b80601f0160208091040260200160405190810160405280929190818152602001828054610458906114b7565b80156104a55780601f1061047a576101008083540402835291602001916104a5565b820191906000526020600020905b81548152906001019060200180831161048857829003601f168201915b505050505081526020016004820180546104be906114b7565b80601f01602080910402602001604051908101604052809291908181526020018280546104ea906114b7565b80156105375780601f1061050c57610100808354040283529160200191610537565b820191906000526020600020905b81548152906001019060200180831161051a57829003601f168201915b5050505050815260200160058201805480602002602001604051908101604052809291908181526020016000905b82821015610611578382906000526020600020018054610584906114b7565b80601f01602080910402602001604051908101604052809291908181526020018280546105b0906114b7565b80156105fd5780601f106105d2576101008083540402835291602001916105fd565b820191906000526020600020905b8154815290600101906020018083116105e057829003601f168201915b505050505081526020019060010190610565565b5050505081525050815260200190600101906102f7565b50505050905090565b60008080549050905090565b60008060006060806060600080888154811061065c5761065b6114e8565b5b906000526020600020906006020190508060000160009054906101000a900473ffffffffffffffffffffffffffffffffffffffff1696508060010160009054906101000a900473ffffffffffffffffffffffffffffffffffffffff1695508060020160009054906101000a900473ffffffffffffffffffffffffffffffffffffffff1694508060030180546106f0906114b7565b80601f016020809104026020016040519081016040528092919081815260200182805461071c906114b7565b80156107695780601f1061073e57610100808354040283529160200191610769565b820191906000526020600020905b81548152906001019060200180831161074c57829003601f168201915b5050505050935080600401805461077f906114b7565b80601f01602080910402602001604051908101604052809291908181526020018280546107ab906114b7565b80156107f85780601f106107cd576101008083540402835291602001916107f8565b820191906000526020600020905b8154815290600101906020018083116107db57829003601f168201915b5050505050925080600501805480602002602001604051908101604052809291908181526020016000905b828210156108cf578382906000526020600020018054610842906114b7565b80601f016020809104026020016040519081016040528092919081815260200182805461086e906114b7565b80156108bb5780601f10610890576101008083540402835291602001916108bb565b820191906000526020600020905b81548152906001019060200180831161089e57829003601f168201915b505050505081526020019060010190610823565b5050505091505091939550919395565b60006040518060c001604052808873ffffffffffffffffffffffffffffffffffffffff1681526020018773ffffffffffffffffffffffffffffffffffffffff1681526020018673ffffffffffffffffffffffffffffffffffffffff16815260200185815260200184815260200183815250908060018154018082558091505060019003906000526020600020906006020160009091909190915060008201518160000160006101000a81548173ffffffffffffffffffffffffffffffffffffffff021916908373ffffffffffffffffffffffffffffffffffffffff16021790555060208201518160010160006101000a81548173ffffffffffffffffffffffffffffffffffffffff021916908373ffffffffffffffffffffffffffffffffffffffff16021790555060408201518160020160006101000a81548173ffffffffffffffffffffffffffffffffffffffff021916908373ffffffffffffffffffffffffffffffffffffffff1602179055506060820151816003019081610a6391906116c3565b506080820151816004019081610a7991906116c3565b5060a0820151816005019080519060200190610a96929190610b21565b5050508373ffffffffffffffffffffffffffffffffffffffff168573ffffffffffffffffffffffffffffffffffffffff168773ffffffffffffffffffffffffffffffffffffffff167f5fd0581ef77065d6a86f65cc211d924b2815865dbffafa0fc23728b38986a7f9868686604051610b1193929190611795565b60405180910390a4505050505050565b828054828255906000526020600020908101928215610b69579160200282015b82811115610b68578251829081610b5891906116c3565b5091602001919060010190610b41565b5b509050610b769190610b7a565b5090565b5b80821115610b9a5760008181610b919190610b9e565b50600101610b7b565b5090565b508054610baa906114b7565b6000825580601f10610bbc5750610bdb565b601f016020900490600052602060002090810190610bda9190610bde565b5b50565b5b80821115610bf7576000816000905550600101610bdf565b5090565b6000604051905090565b600080fd5b600080fd5b6000819050919050565b610c2281610c0f565b8114610c2d57600080fd5b50565b600081359050610c3f81610c19565b92915050565b600060208284031215610c5b57610c5a610c05565b5b6000610c6984828501610c30565b91505092915050565b600073ffffffffffffffffffffffffffffffffffffffff82169050919050565b6000610c9d82610c72565b9050919050565b610cad81610c92565b82525050565b600081519050919050565b600082825260208201905092915050565b60005b83811015610ced578082015181840152602081019050610cd2565b60008484015250505050565b6000601f19601f8301169050919050565b6000610d1582610cb3565b610d1f8185610cbe565b9350610d2f818560208601610ccf565b610d3881610cf9565b840191505092915050565b600060a082019050610d586000830188610ca4565b610d656020830187610ca4565b610d726040830186610ca4565b8181036060830152610d848185610d0a565b90508181036080830152610d988184610d0a565b90509695505050505050565b600081519050919050565b600082825260208201905092915050565b6000819050602082019050919050565b610dd981610c92565b82525050565b600082825260208201905092915050565b6000610dfb82610cb3565b610e058185610ddf565b9350610e15818560208601610ccf565b610e1e81610cf9565b840191505092915050565b600081519050919050565b600082825260208201905092915050565b6000819050602082019050919050565b6000610e618383610df0565b905092915050565b6000602082019050919050565b6000610e8182610e29565b610e8b8185610e34565b935083602082028501610e9d85610e45565b8060005b85811015610ed95784840389528151610eba8582610e55565b9450610ec583610e69565b925060208a01995050600181019050610ea1565b50829750879550505050505092915050565b600060c083016000830151610f036000860182610dd0565b506020830151610f166020860182610dd0565b506040830151610f296040860182610dd0565b5060608301518482036060860152610f418282610df0565b91505060808301518482036080860152610f5b8282610df0565b91505060a083015184820360a0860152610f758282610e76565b9150508091505092915050565b6000610f8e8383610eeb565b905092915050565b6000602082019050919050565b6000610fae82610da4565b610fb88185610daf565b935083602082028501610fca85610dc0565b8060005b858110156110065784840389528151610fe78582610f82565b9450610ff283610f96565b925060208a01995050600181019050610fce565b50829750879550505050505092915050565b600060208201905081810360008301526110328184610fa3565b905092915050565b61104381610c0f565b82525050565b600060208201905061105e600083018461103a565b92915050565b600082825260208201905092915050565b600061108082610e29565b61108a8185611064565b93508360208202850161109c85610e45565b8060005b858110156110d857848403895281516110b98582610e55565b94506110c483610e69565b925060208a019950506001810190506110a0565b50829750879550505050505092915050565b600060c0820190506110ff6000830189610ca4565b61110c6020830188610ca4565b6111196040830187610ca4565b818103606083015261112b8186610d0a565b9050818103608083015261113f8185610d0a565b905081810360a08301526111538184611075565b9050979650505050505050565b61116981610c92565b811461117457600080fd5b50565b60008135905061118681611160565b92915050565b600080fd5b600080fd5b7f4e487b7100000000000000000000000000000000000000000000000000000000600052604160045260246000fd5b6111ce82610cf9565b810181811067ffffffffffffffff821117156111ed576111ec611196565b5b80604052505050565b6000611200610bfb565b905061120c82826111c5565b919050565b600067ffffffffffffffff82111561122c5761122b611196565b5b61123582610cf9565b9050602081019050919050565b82818337600083830152505050565b600061126461125f84611211565b6111f6565b9050828152602081018484840111156112805761127f611191565b5b61128b848285611242565b509392505050565b600082601f8301126112a8576112a761118c565b5b81356112b8848260208601611251565b91505092915050565b600067ffffffffffffffff8211156112dc576112db611196565b5b602082029050602081019050919050565b600080fd5b6000611305611300846112c1565b6111f6565b90508083825260208201905060208402830185811115611328576113276112ed565b5b835b8181101561136f57803567ffffffffffffffff81111561134d5761134c61118c565b5b80860161135a8982611293565b8552602085019450505060208101905061132a565b5050509392505050565b600082601f83011261138e5761138d61118c565b5b813561139e8482602086016112f2565b91505092915050565b60008060008060008060c087890312156113c4576113c3610c05565b5b60006113d289828a01611177565b96505060206113e389828a01611177565b95505060406113f489828a01611177565b945050606087013567ffffffffffffffff81111561141557611414610c0a565b5b61142189828a01611293565b935050608087013567ffffffffffffffff81111561144257611441610c0a565b5b61144e89828a01611293565b92505060a087013567ffffffffffffffff81111561146f5761146e610c0a565b5b61147b89828a01611379565b9150509295509295509295565b7f4e487b7100000000000000000000000000000000000000000000000000000000600052602260045260246000fd5b600060028204905060018216806114cf57607f821691505b6020821081036114e2576114e1611488565b5b50919050565b7f4e487b7100000000000000000000000000000000000000000000000000000000600052603260045260246000fd5b60008190508160005260206000209050919050565b60006020601f8301049050919050565b600082821b905092915050565b6000600883026115797fffffffffffffffffffffffffffffffffffffffffffffffffffffffffffffffff8261153c565b611583868361153c565b95508019841693508086168417925050509392505050565b6000819050919050565b60006115c06115bb6115b684610c0f565b61159b565b610c0f565b9050919050565b6000819050919050565b6115da836115a5565b6115ee6115e6826115c7565b848454611549565b825550505050565b600090565b6116036115f6565b61160e8184846115d1565b505050565b5b81811015611632576116276000826115fb565b600181019050611614565b5050565b601f8211156116775761164881611517565b6116518461152c565b81016020851015611660578190505b61167461166c8561152c565b830182611613565b50505b505050565b600082821c905092915050565b600061169a6000198460080261167c565b1980831691505092915050565b60006116b38383611689565b9150826002028217905092915050565b6116cc82610cb3565b67ffffffffffffffff8111156116e5576116e4611196565b5b6116ef82546114b7565b6116fa828285611636565b600060209050601f83116001811461172d576000841561171b578287015190505b61172585826116a7565b86555061178d565b601f19841661173b86611517565b60005b828110156117635784890151825560018201915060208501945060208101905061173e565b86831015611780578489015161177c601f891682611689565b8355505b6001600288020188555050505b505050505050565b600060608201905081810360008301526117af8186610d0a565b905081810360208301526117c38185610d0a565b905081810360408301526117d78184611075565b905094935050505056fea26469706673582212204f38241819d9970fd596eb53875aa61bd4e9ddb5a55501473330fc71e8c9c77b64736f6c63430008180033",
  "linkReferences": {},
  "deployedLinkReferences": {}
}